:100000000C94A2000C94C3000C94C3000C94C30085
:100010000C94C3000C94C3000C94C3000C94C30054
:100020000C94C3000C94C3000C94C3000C94C30044
:100030000C94C3000C94C3000C94C3000C94C30034
:100040000C94C3000C94C3000C94C3000C94C30024
:100050000C94C3000C94C3000C94C3000C94C30014
:100060000C94C3000C94C3000C94C3000C94C30004
:100070000C94C3000C94C3000C94C3000C94C300F4
:100080000C94C3000C94C3000C94C3000C94C300E4
:100090000C94C3000C94C3000C94C3000C94C300D4
:1000A0000C94C3000C94C3000C94C3000C94C300C4
:1000B0000C94C3000C94C3000C94C3000C94C300B4
:1000C0000C94C3000C94C3000C94C3000C94C300A4
:1000D0000C94C3000C94C3000C94C3000C94C30094
:1000E0000C94C3000C94C3000C94C3000C94C30084
:1000F0000C94C3000C94C3000C94C3000C94C30074
:100100000C94C3000C94C3000C94C3000C94C30063
:100110000C94C3000C94C3000C94C3000C94C30053
:100120000C94C3000C94C3000C94C3000C94C30043
:100130000C94C3000C94C3000C94C3000C94C30033
:100140000C94C30011241FBECFEFCDBFDFE3DEBF91
:1001500000E00CBF11E2A0E0B0E2E4E7F3E100E070
:100160000BBF02C007900D92A430B107D9F72CE362
:10017000A4E0B1E201C01D92A037B207E1F70E94EE
:10018000FD010C94B8090C940000AAECB1E092E0D7
:100190009C93E82FF0E084911C920895CF93DF9315
:1001A000EC01C11582E0D80759F480E20E94C50035
:1001B000C0E0D2E08C8781E20E94C5008D8708C034
:1001C00084E20E94C5008C8785E20E94C5008D876D
:1001D000DF91CF910895682F70E080E090E00E9459
:1001E000260620E030E04FE753E40E94B205089570
:1001F000CF92DF92EF92FF926B017C0120E030E022
:10020000A9010E94D606882354F020E030E040E89F
:100210005EE3C701B6010E94AD0518169CF520E00B
:1002200030E040E85EE3C701B6010E94D60618162A
:1002300054F42DEC3CEC4CEC5EE3C701B6010E949B
:10024000AD05181614F52DEC3CEC4CEC5EE3C70143
:10025000B6010E94D606181654F420E030E040E4BF
:100260005FE3C701B6010E94AD0518168CF420E0CB
:1002700030E040E45FE3C701B6010E94D6061816DD
:1002800054F00BC080E090E008C082E090E005C030
:1002900081E090E002C083E090E0FF90EF90DF907B
:1002A000CF9008958093210608958093260608959F
:1002B000809325060895809327060895803468F07A
:1002C00090EC980F903460F090E8980F903458F0CC
:1002D000803C60F484E090E0089580E090E0089530
:1002E00081E090E0089582E090E0089583E090E05E
:1002F0000895E0E0FAE09081892B808381E0089501
:100300008093260A9093270A81E00895E0E0FAE0BE
:100310009181892B818381E008958032910581F05C
:1003200018F4409741F01AC08034910571F080387C
:10033000910581F013C06093380A7093390A0EC09A
:1003400060933A0A70933B0A09C060933C0A709329
:100350003D0A04C060933E0A70933F0A80E008950E
:10036000E0E0FAE08181806181830895E0E0FAE0D5
:100370008181806281830895E0E0FAE081818F7E4F
:1003800081830895E0E0FAE081818F7D8183089583
:10039000E0E4F0E09381892B838380E00895E0E43A
:1003A000F0E08381816083830895E0E0F4E0908150
:1003B000892B808380E008959091010481E0911160
:1003C00001C080E0089580910304817008958093B6
:1003D0000A0490930B0481E0089580930C04909399
:1003E0000D04089580910C0490910D040895E82F58
:1003F000F0E0E050F04E80810895412C512C68943B
:10040000222421F8312CF12CC0E0D0E0812C912C59
:10041000C12CD12C0F2EF3E0AF2EB12CF02D68940F
:10042000772472F80F2EFFE36F2EF02DC230D10526
:1004300009F4A2C038F4209781F0C130D10509F445
:100440005BC00CC1C430D10509F4C6C008F4ADC00E
:10045000C530D10509F4F7C001C143E050E068E4BC
:1004600078EE80E090E00E946C0580E090E00E94D1
:10047000590580E190E00E94520180E290E00E94E4
:10048000520180E490E00E94520180E890E00E94D6
:10049000520180E190E00E94580180E290E00E94C9
:1004A000580180E490E00E94580180E890E00E94AA
:1004B000580181E080930206809342062FE020934A
:1004C000220630E83093020647E0409381064093CD
:1004D000860683E090E00E94860181E090E00E9421
:1004E000790180E49CE90E948001412C512CC1E0FB
:1004F000D0E0A12CB12CB2C080E090E00E94890530
:10050000882309F4ABC080E090E00E94980580E267
:1005100090E00E945B018091080680FF05C0F11009
:100520009DC0FF24F3949AC051E0F51297C00E9439
:10053000B0010E94B6016EE174E180E190E00E949A
:100540008D0168EB70E180E290E00E948D0180E017
:1005500090E00E943C0580E290E00E94580183E018
:10056000A816B10409F079C0109208041092090489
:10057000F12CC2E0D0E072C00E94E301813061F44E
:1005800080E190E00E945801C3E0D0E00F2EF5E03A
:100590008F2E912CF02D7BC080E190E00E945501C0
:1005A0008091480680FDA0C081C00E94BC010E94CD
:1005B000C20143E050E068E478EE80E090E00E9401
:1005C0006C0580E090E00E94590580E290E00E9476
:1005D0005801C4E0D0E042C080E090E00E9489056C
:1005E0008823E1F180E090E00E94980580E490E0AB
:1005F0000E945B018091080680FF05C0F1102EC0AB
:10060000FF24F3942BC0E1E0FE1228C080E490E0C8
:100610000E94580180E090E00E943C050F2EFCE013
:10062000EF2EF12CF02D00E010E023E030E040E070
:1006300050E060E070E080E090E00E949104F12CD6
:10064000C5E0D0E00BC04114510421F08AE090E0F5
:100650000E94E2040E940F0501C0F12CF3E0CF16C6
:10066000D10409F441C048F431E0C316D104F1F0DB
:1006700042E0C416D10449F154C054E0C516D10477
:1006800009F441C085E0C816D10409F04AC060E011
:1006900070E080E190E00E948D0160E070E080E217
:1006A00090E00E948D01C12CD12C3BC060EA7FE01C
:1006B00080E190E00E948D0168E873E180E290E0C3
:1006C0000E948D01C12CD12C2CC060E777E180E124
:1006D00090E00E948D0168EB7BE080E290E00E9458
:1006E0008D01C12CD12C1DC060E777E180E190E045
:1006F0000E948D0168E873E180E290E00E948D0124
:10070000C12CD12C0EC060EA7FE080E190E00E9415
:100710008D0168EB7BE080E290E00E948D01C12CAE
:10072000D12C8114910429F0E1E08E169104B9F0E6
:10073000BFC080E492E00E94CE00E0E4F2E071826B
:100740001282608681E080A380818160808311A213
:1007500080A1806880A388248394912CA9C0C23092
:10076000D10509F0A5C0F3E02F163104C1F124E052
:100770002216310409F462C032E02316310409F074
:1007800089C08091630280FF85C000E412E0F80117
:1007900083A1816083A3FDE0F49DC001F59D900DD0
:1007A00011249C01285F3C4D190182E090E0F90181
:1007B00080839183F80184A10E94F701F10186836F
:1007C000FFEF4F1A5F0A21E7F80121A380A180689B
:1007D00080A30F2EF3E02F2E312CF02D5BC08091E3
:1007E000630280FF57C000E412E0F80183A181603A
:1007F00083A384A10E94EB00FDE0F49D9001F59D90
:10080000300D1124A901485F5C4D1A01FA0167837C
:100810007087818792870E94F800F101838794870F
:10082000FFEF4F1A5F0A20E1F80121A380A1806841
:1008300080A36894222422F8312C2CC0809163027A
:1008400080FF28C000E412E0F80183A1816083A347
:10085000FDE0F49DC001F59D900D11249C01285FE1
:100860003C4D190184E090E0F90180839183F80107
:1008700084A10E945E01F10184839583FFEF4F1AEA
:100880005F0AF80111A280A1806880A368942224E5
:1008900021F8312C80910804909109042DE0249DC9
:1008A000F001259DF00D1124E85FFC4D82839383B8
:1008B00031E0A316B104A1F028F052E0A516B1046E
:1008C000E1F0B4CD80E090E00E94C8010E94CF0129
:1008D00081E090E00E94D501AA24A394B12CA6CD7A
:1008E0000E94DC018111A2CD80E098E70E94E7011F
:1008F0006894AA24A1F8B12C99CD0E94DC01811141
:1009000095CD0E94F2019C5F0E94ED010F2EF5E053
:10091000CF2ED12CF02D0F2EF3E0AF2EB12CF02DD9
:1009200085CDEF92FF920F931F93E0E4F6E098E0FD
:10093000918394E09283242B622B862BE0EAF8E0EB
:100940008583E682F782C80107960F9788F487812E
:1009500002951295107F1027007F1027082B078320
:1009600084818061848384818860848380E001C085
:1009700081E01F910F91FF90EF90089590910622D2
:10098000E0910722E90FF0E0E85FFD4D80839F5F73
:100990009093062280E00895CF93DF93EC01988135
:1009A000992351F02196892F0E94BE04811106C01F
:1009B00099919111F8CF03C080E001C081E0DF91EF
:1009C000CF910895CF93DF93CDB7DEB72A97CDBFF0
:1009D000DEBF9F938F9380E091E29F938F93CE0130
:1009E00001969F938F930E94DB060F900F900F90BC
:1009F0000F900F900F90181619064CF4CE01019627
:100A00000E94CC0491E0811103C090E001C091E00C
:100A1000892F2A96CDBFDEBFDF91CF9108958091B7
:100A2000A10885FF16C080910622882391F0E091ED
:100A30000722F0E0E85FFD4D80818093A00880915F
:100A400007228F5F80930722809106228150809336
:100A500006228091A108882374F48091042190914A
:100A6000A008E0910521E80FF0E0EA5FFE4D9083D9
:100A70008F5F809304210895009719F0019761F02A
:100A800016C0E0E0F8E0808190E080936E3C9093A7
:100A90006F3C108281E00895E0E0FAE0808190E010
:100AA00080936E3C90936F3C108281E0089580E0CB
:100AB0000895009719F0019739F00CC080916E3CB1
:100AC0008093000881E0089580916C3C8093000A37
:100AD00081E0089580E00895009719F0019761F092
:100AE00016C0E0E0F8E0408340936E3C50936F3CCA
:100AF00066A377A381E00895E0E0FAE040834093A5
:100B00006C3C50936D3C66A377A381E0089580E030
:100B10000895009719F0019729F008C080910C08FA
:100B20008170089580910C0A8170089580E0089585
:100B3000009719F0019741F00EC0E0E0F8E08485DD
:100B40008160848781E00895E0E0FAE08485816037
:100B5000848781E0089580E008950E94610608F48A
:100B600081E008950E94C6050C949C060E9495069B
:100B700058F00E948E0640F029F45F3F29F00C9453
:100B8000850651110C94D0060C948B060E94AD067C
:100B900068F39923B1F3552391F3951B550BBB27AC
:100BA000AA2762177307840738F09F5F5F4F220FF1
:100BB000331F441FAA1FA9F335D00E2E3AF0E0E8E8
:100BC00032D091505040E695001CCAF72BD0FE2F32
:100BD00029D0660F771F881FBB1F261737074807C6
:100BE000AB07B0E809F0BB0B802DBF01FF2793587E
:100BF0005F4F3AF09E3F510578F00C9485060C94B7
:100C0000D0065F3FE4F3983ED4F3869577956795D9
:100C1000B795F7959F5FC9F7880F911D96958795B2
:100C200097F90895E1E0660F771F881FBB1F6217D1
:100C300073078407BA0720F0621B730B840BBA0B8F
:100C4000EE1F88F7E0950895E89409C097FB3EF4FD
:100C500090958095709561957F4F8F4F9F4F992309
:100C6000A9F0F92F96E9BB279395F6958795779587
:100C70006795B795F111F8CFFAF4BB0F11F460FF47
:100C80001BC06F5F7F4F8F4F9F4F16C0882311F09F
:100C900096E911C0772321F09EE8872F762F05C0B3
:100CA000662371F096E8862F70E060E02AF09A954E
:100CB000660F771F881FDAF7880F9695879597F943
:100CC0000895990F0008550FAA0BE0E8FEEF1616DD
:100CD0001706E807F907C0F012161306E407F50730
:100CE00098F0621B730B840B950B39F40A2661F0A4
:100CF000232B242B252B21F408950A2609F4A14047
:100D0000A6958FEF811D811D089597F99F6780E853
:100D100070E060E008959FEF80EC089500240A944D
:100D20001616170618060906089500240A941216C6
:100D30001306140605060895092E0394000C11F4F9
:100D4000882352F0BB0F40F4BF2B11F460FF04C0A6
:100D50006F5F7F4F8F4F9F4F089557FD9058440FFF
:100D6000551F59F05F3F71F04795880F97FB991F0A
:100D700061F09F3F79F087950895121613061406C7
:100D8000551FF2CF4695F1DF08C016161706180654
:100D9000991FF1CF86957105610508940895E8942F
:100DA000BB2766277727CB0197F908950E94610634
:100DB00008F48FEF08950F931F93CF93DF93CDB770
:100DC000DEB72E97CDBFDEBF0E891F8986E08C83EC
:100DD00009831A838FEF9FE78D839E83AE01465E62
:100DE0005F4F688D798DCE0101960E940407EF81D7
:100DF000F885E00FF11F10822E96CDBFDEBFDF9188
:100E0000CF911F910F9108952F923F924F925F9231
:100E10006F927F928F929F92AF92BF92CF92DF920A
:100E2000EF92FF920F931F93CF93DF93CDB7DEB76F
:100E30002B97CDBFDEBF6C017B018A01FC011682BE
:100E40001782838181FFCCC1CE0101963C01F6015E
:100E50009381F70193FD859193FF81917F01882311
:100E600009F4BAC1853239F493FD859193FF8191DC
:100E70007F01853229F4B60190E00E941E09E7CF78
:100E8000912C212C312CFFE1F315D8F08B3279F025
:100E900038F4803279F08332A1F4232D20611DC013
:100EA0008D3261F0803369F4232D216016C0832DCB
:100EB0008260382EE32DE4603E2E2AC0F32DF860C8
:100EC0001DC037FC2DC020ED280F2A3040F08E3297
:100ED000B9F436FC81C1232D2064322E19C036FEB0
:100EE00006C08AE0989E200D1124922E11C0EAE0DF
:100EF0002E9E200D1124222EF32DF0623F2E08C0CD
:100F00008C3621F4832D8068382E02C0883641F457
:100F1000F70193FD859193FF81917F018111B3CFFB
:100F2000982F9F7D9554933028F40C5F1F4F9FE3BB
:100F300099830DC0833631F0833771F0833509F022
:100F400059C021C0F801808189830E5F1F4F88241A
:100F50008394912C530113C02801F2E04F0E511CD1
:100F6000F801A080B18036FE03C0692D70E002C098
:100F70006FEF7FEFC5010E9413094C018201F32D31
:100F8000FF773F2E16C0280122E0420E511CF801C7
:100F9000A080B18036FE03C0692D70E002C06FEF03
:100FA0007FEFC5010E9408094C01F32DF0683F2E28
:100FB000820133FC1BC0822D90E088169906B0F4A4
:100FC000B60180E290E00E941E092A94F4CFF50158
:100FD00037FC859137FE81915F01B60190E00E9458
:100FE0001E0921102A9421E0821A9108811491048B
:100FF00071F7E8C0843611F0893641F5F80137FE03
:1010000007C060817181828193810C5F1F4F08C08E
:1010100060817181072E000C880B990B0E5F1F4FAA
:10102000F32DFF763F2E97FF09C090958095709520
:1010300061957F4F8F4F9F4FF0683F2E2AE030E041
:10104000A3010E945A09882E861845C0853731F4BD
:10105000232D2F7EB22E2AE030E025C0932D997FDC
:10106000B92E8F36C1F018F4883579F0B5C08037C5
:1010700019F0883721F0B0C0E92FE061BE2EB4FE30
:101080000DC0FB2DF460BF2E09C034FE0AC0292F0D
:101090002660B22E06C028E030E005C020E130E036
:1010A00002C020E132E0F801B7FE07C06081718123
:1010B000828193810C5F1F4F06C06081718180E047
:1010C00090E00E5F1F4FA3010E945A09882E8618D8
:1010D000FB2DFF773F2E36FE0DC0232D2E7FA22E37
:1010E000891458F434FE0BC032FC09C0832D8E7E67
:1010F000A82E05C0B82CA32C03C0B82C01C0B92C55
:10110000A4FE0FC0FE01E80DF11D8081803321F4A3
:101110009A2D997EA92E09C0A2FE06C0B394B3945D
:1011200004C08A2D867809F0B394A3FC11C0A0FEF8
:1011300006C0B21488F4280C922C9B180EC0B2146E
:1011400060F4B60180E290E00E941E09B394F7CFEC
:10115000B21418F42B1802C0982C212CA4FE10C035
:10116000B60180E390E00E941E09A2FE17C0A1FC18
:1011700003C088E790E002C088E590E0B6010CC0AB
:101180008A2D867859F0A1FE02C08BE201C080E270
:10119000A7FC8DE2B60190E00E941E09891438F484
:1011A000B60180E390E00E941E099A94F7CF8A94DA
:1011B000F301E80DF11D8081B60190E00E941E0947
:1011C0008110F5CF222009F442CEB60180E290E0F2
:1011D0000E941E092A94F6CFF6018681978102C0EB
:1011E0008FEF9FEF2B96CDBFDEBFDF91CF911F9189
:1011F0000F91FF90EF90DF90CF90BF90AF909F90B6
:101200008F907F906F905F904F903F902F900895B8
:10121000FC010590615070400110D8F780959095C1
:101220008E0F9F1F0895FC016150704001900110C6
:10123000D8F7809590958E0F9F1F08950F931F9359
:10124000CF93DF93FB01238121FD03C08FEF9FEF3D
:101250002CC022FF16C04681578124813581421758
:10126000530744F4A081B1819D012F5F3F4F20833C
:1012700031838C93268137812F5F3F4F26833783BD
:1012800014C08B01EC01FB010084F185E02D199560
:10129000892BE1F6D80116968D919C9117970196AE
:1012A00016968D939C931797CE01DF91CF911F9146
:1012B0000F910895FA01AA27283051F1203181F1C8
:1012C000E8946F936E7F6E5F7F4F8F4F9F4FAF4F4E
:1012D000B1E03ED0B4E03CD0670F781F891F9A1F61
:1012E000A11D680F791F8A1F911DA11D6A0F711D15
:1012F000811D911DA11D20D009F468943F912AE021
:10130000269F11243019305D3193DEF6CF01089508
:10131000462F4770405D4193B3E00FD0C9F7F6CF39
:10132000462F4F70405D4A3318F0495D31FD405201
:10133000419302D0A9F7EACFB4E0A6959795879597
:1013400077956795BA95C9F7009761057105089576
:101350009B01AC010A2E0694579547953795279522
:10136000BA95C9F7620F731F841F951FA01D0895BA
:04137000F894FFCF1F
:101374007D7D7D7D7D7C7B7A7978777675747372DB
:1013840071706F6E6E6D6C6C6B6A6A6968686766A3
:10139400666564646362626160605F5E5E5D5C5C3E
:1013A4005B5A5A59595858575756565555545353CA
:1013B400525150504F4F4E4E4D4D4C4C4B4B4A4A50
:1013C40049494848474746464545444444434342BF
:1013D4004241414140403F3F3F3E3E3D3D3D3C3C1C
:1013E4003B3B3B3A3A393939383838373736363671
:1013F40035353534343333333232323131313030C0
:10140400302F2F2F2E2E2E2D2D2C2C2B2B2B2A2A0A
:101414002A29292929282827272626262625252456
:101424002424232323222222212120201F1F1F1EA4
:101434001E1D1D1D1C1C1B1B1B1A1A1919191818FB
:10144400171716161615151414131312121111105A
:10145400100F0E0E0D0D0C0B0B0A0A0908080706D7
:101464000605040303020100000000000000000060
:0414740025750000DA
:00000001FF
